:020000040000FA
:100000000C945E000C9486000C9486000C94860080
:100010000C9486000C9486000C9486000C94D901F4
:100020000C9486000C9486000C9486000C94860038
:100030000C9486000C9486000C9486000C94860028
:100040000C94F4020C9486000C94C2020C949C0252
:100050000C9486000C9486000C9486000C94860008
:100060000C9486000C948600000000080002010039
:100070000003040700000000000000000200000070
:1000800000250028002B0000000000240027002A83
:100090000004040404040404040202020202020331
:1000A000030303030301020408102040800102043B
:1000B00008102001020408102000250611241FBE8C
:1000C000CFEFD8E0DEBFCDBF11E0A0E0B1E0E6E3C6
:1000D000FDE002C005900D92A631B107D9F721E0ED
:1000E000A6E1B1E001C01D92AD3CB207E1F710E01E
:1000F000CEE5D0E004C02197FE010E949306CD35E5
:10010000D107C9F70E943E030C9499060C94000095
:1001100090E0FC01EB55FF4F24918F569F4FFC015F
:100120008491882399F090E0880F991FFC01E9578A
:10013000FF4FA591B491FC01E358FF4F8591949135
:100140008FB7F894EC91E22BEC938FBF0895AF92A8
:10015000BF92CF92DF92EF92FF920F931F93CF93B4
:10016000DF936C017B018B01040F151FEB015E0116
:10017000AE18BF08C017D10759F06991D601ED91AB
:10018000FC910190F081E02DC6010995892B79F74A
:10019000C501DF91CF911F910F91FF90EF90DF90FC
:1001A000CF90BF90AF900895FC01538D448D252FC3
:1001B00030E0842F90E0821B930B541710F0CF9601
:1001C000089501970895FC01918D828D981761F033
:1001D000A28DAE0FBF2FB11D5D968C91928D9F5F4A
:1001E0009F73928F90E008958FEF9FEF0895FC0129
:1001F000918D828D981731F0828DE80FF11D858DDC
:1002000090E008958FEF9FEF0895FC01918D228D6E
:10021000892F90E0805C9F4F821B91098F739927F3
:10022000089580E391E00E94050121E0892B09F403
:1002300020E0822F089580E090E0892B29F00E9431
:10024000110181110C9400000895FC01A48DA80FE8
:10025000B92FB11DA35ABF4F2C91848D90E0019608
:100260008F739927848FA689B7892C93A089B18928
:100270008C91837080648C93938D848D981306C0C9
:100280000288F389E02D80818F7D80830895EF922D
:10029000FF920F931F93CF93DF93EC0181E0888F40
:1002A0009B8D8C8D98131AC0E889F989808185FF10
:1002B00015C09FB7F894EE89FF896083E889F989B2
:1002C00080818370806480839FBF81E090E0DF91B4
:1002D000CF911F910F91FF90EF900895F62E0B8D07
:1002E00010E00F5F1F4F0F731127E02E8C8D8E11C2
:1002F0000CC00FB607FCFACFE889F989808185FF29
:10030000F5CFCE010E942501F1CFEB8DEC0FFD2F33
:10031000F11DE35AFF4FF0829FB7F8940B8FEA89E3
:10032000FB8980818062CFCFCF93DF93EC01888DF2
:100330008823B9F0AA89BB89E889F9898C9185FD60
:1003400003C0808186FD0DC00FB607FCF7CF8C91EE
:1003500085FFF2CF808185FFEDCFCE010E94250180
:10036000E9CFDF91CF9108953FB7F89480911B01B9
:1003700090911C01A0911D01B0911E0126B5A89B72
:1003800005C02F3F19F00196A11DB11D3FBFBA2F27
:10039000A92F982F8827BC01CD01620F711D811DE7
:1003A000911D42E0660F771F881F991F4A95D1F76C
:1003B00008951F920F920FB60F9211242F933F931F
:1003C0008F939F93AF93BF93EF93FF9380912401FB
:1003D00090912501A0912601B0912701892B8A2BAC
:1003E0008B2BB1F190911F01E0912001F09121013F
:1003F0008081892780838091240190912501A0919B
:100400002601B0912701181619061A061B069CF43E
:100410008091240190912501A0912601B09127019E
:100420000197A109B1098093240190932501A0931C
:100430002601B0932701FF91EF91BF91AF919F915A
:100440008F913F912F910F900FBE0F901F90189595
:1004500080910001ECE7F0E0E4919FEF90930001C0
:10046000E13009F431C068F1E23009F433C090E0C2
:10047000FC01E859FF4F2491FC01EB55FF4F3491EB
:10048000FC01EF56FF4FE491EE23A9F2222351F035
:10049000233009F43AC078F5213009F43CC0223009
:1004A00009F43DC0F0E0EE0FFF1FE358FF4FA591A8
:1004B000B4918FB7F894EC9130953E233C938FBF65
:1004C000BACF10926E00D3CF90916F009D7F909322
:1004D0006F00CDCF909170009D7F9093700091E060
:1004E0009093B0009091B100987F94609093B10088
:1004F0001092B300BCCF2730A9F02830C9F02430C7
:1005000089F6809180008F7D03C0809180008F7775
:1005100080938000C7CF84B58F7784BDC3CF84B567
:100520008F7DFBCF8091B0008F778093B000BACFE2
:100530008091B0008F7DF9CF1F920F920FB60F926E
:1005400011242F933F934F935F936F937F938F93D8
:100550009F93AF93BF93EF93FF9380E391E00E944B
:100560002501FF91EF91BF91AF919F918F917F9165
:100570006F915F914F913F912F910F900FBE0F9010
:100580001F9018951F920F920FB60F9211242F9360
:100590008F939F93EF93FF93E0914001F09141017E
:1005A0008081E0914601F091470182FD1BC090815E
:1005B000809149018F5F8F7320914A01821741F02A
:1005C000E0914901F0E0E05DFE4F958F8093490195
:1005D000FF91EF919F918F912F910F900FBE0F90F0
:1005E0001F9018958081F4CF1F920F920FB60F9233
:1005F00011242F933F938F939F93AF93BF93809139
:10060000170190911801A0911901B0911A01309130
:10061000160123E0230F2D3758F50196A11DB11DBA
:10062000209316018093170190931801A09319014C
:10063000B0931A0180911B0190911C01A0911D01A2
:10064000B0911E010196A11DB11D80931B019093D5
:100650001C01A0931D01B0931E01BF91AF919F910A
:100660008F913F912F910F900FBE0F901F90189573
:1006700026E8230F0296A11DB11DD2CFCF93DF93A1
:10068000CDB7DEB7A1970FB6F894DEBF0FBECDBFD2
:10069000789484B5826084BD84B5816084BD85B55D
:1006A000826085BD85B5816085BD80916E00816069
:1006B00080936E001092810080918100826080930F
:1006C0008100809181008160809381008091800011
:1006D0008160809380008091B10084608093B1003C
:1006E0008091B00081608093B00080917A00846036
:1006F00080937A0080917A00826080937A00809162
:100700007A00816080937A0080917A00806880937B
:100710007A001092C100E0914001F091410182E025
:100720008083E0913C01F0913D011082E0913E0117
:10073000F0913F018FEC808310924801E0914401D9
:10074000F091450186E08083E0914201F091430100
:10075000808180618083E0914201F091430180813A
:1007600088608083E0914201F0914301808180683C
:100770008083E0914201F091430180818F7D8083ED
:100780008BE00E94880088248A94982C540170EB96
:10079000272E70E0372E80E480937C0080917A00D1
:1007A000806480937A0080917A0086FDFCCF8091EE
:1007B0007800C09079001C2D082F0E94B4016B01B5
:1007C0007C016AE0462E512C612C712C0E94B401F0
:1007D0006C197D098E099F09683E7340810591055A
:1007E000A8F321E0421A51086108710888EEC80E8A
:1007F00083E0D81EE11CF11C411451046104710412
:1008000029F72801012E000C6608770817FFD7C0CA
:100810006DE280E391E00E94470122273327A9017E
:10082000241935094609570919A2CE0181967C0180
:10083000CA01B9012AE030E040E050E00E945206CF
:10084000605DF70162937F01211531054105510576
:1008500079F7E114F10461F001900020E9F7319794
:10086000AF014E195F09B70180E391E00E94A70034
:1008700042E050E063E171E080E391E00E94A70074
:100880000733F1E01F070CF485C16801D594C794C4
:10089000D594C794809100018B3009F0A8C0ECE793
:1008A000F0E0149117FD76C18BE00E9488001123BF
:1008B00019F0123009F07BC10D2C000CEE08FF0876
:1008C00060E072E18AE790E0A70196010E94740659
:1008D00029013A0160E472E48FE090E0A7019601FB
:1008E0000E9474062150310941095109123009F062
:1008F000EFC02F3F31054105510509F00CF43CC113
:1009000060E970ED83E090E0A70196010E94740613
:10091000215031094109510983E02F3F310541053B
:10092000510509F00CF429C168E478EE81E090E00B
:10093000A70196010E94740621503109410951090D
:1009400084E02F3F31054105510509F00CF415C134
:1009500064E274EF80E090E0A70196010E947406C3
:10096000215031094109510985E02F3F31054105E9
:10097000510509F008F401C162E17AE780E090E0F6
:10098000A70196010E9474062150310941095109BD
:1009900086E02F3F31054105510509F00CF4EDC00B
:1009A0009AE075946794579447949A95D1F7A30168
:1009B0009201215031094109510987E0DEC0A301AC
:1009C000920119A2CE0181967C01CA01B9012AE0E7
:1009D00030E040E050E00E945206605DF701629313
:1009E0007F01211531054105510579F732CF8F3F40
:1009F00009F0D0C08BE080930001ECE7F0E01491A7
:100A00001F3F09F4C7C0113019F148F0123009F442
:100A10003DC017FDBFC08BE00E9488004ACF14BCC8
:100A200015BC84B5826084BD85B5816085BDECE967
:100A3000F0E08491E82FF0E0EE0FFF1FE358FF4F46
:100A400085919491F10184918093230110E02CCF42
:100A500010928000109281008091810088608093C4
:100A6000810080918100816080938100ECE9F0E059
:100A70008491E82FF0E0EE0FFF1FE358FF4F8591C0
:100A80009491F1018491809322010ECF1092B000D5
:100A90001092B1008091B00082608093B00080918C
:100AA000B10081608093B100ECE9F0E08491E82F1F
:100AB000F0E0EE0FFF1FE358FF4F85919491909364
:100AC000210180932001F101849180931F01ECCEDC
:100AD0002F3F310541055105C9F1C4F168E478EEB5
:100AE00081E090E0A70196010E947406215031092F
:100AF0004109510984E0111138CF93E02F3F3105AE
:100B00004105510531F12CF162E17AE780E090E096
:100B1000A70196010E94740621503109410951092B
:100B200094E02F3F31054105510599F094F08AE09A
:100B300075946794579447948A95D1F7A3019201CD
:100B4000215031094109510995E003C0111114C028
:100B500092E085B5887F892B85BD27BD80922C01C9
:100B600090922D01A0922E01B0922F0180916E00E3
:100B7000826080936E000EC082E09091B100987FF9
:100B8000892B8093B1001130F1F1123009F44DC07E
:100B9000112319F380E090E0892B09F4FCCD0E9429
:100BA0001101882309F4F3CD0E940000F0CD0D2C33
:100BB000000CEE08FF0860E072E18AE790E0A70110
:100BC00096010E947406215031094109510991E0B2
:100BD00021153105F1E04F0751056CF068E478EE1E
:100BE00081E090E0A70196010E947406215031092E
:100BF0004109510993E0113031F680918100887FDD
:100C0000892B809381003093890020938800809203
:100C1000280190922901A0922A01B0922B01809183
:100C20006F00826080936F00B5CF2093B3008092F5
:100C3000240190922501A0922601B0922701809173
:100C40007000826080937000A5CFE0E3F1E0138232
:100C5000128288EE93E0A0E0B0E084839583A683BF
:100C6000B78385E091E09183808385EC90E0958760
:100C7000848784EC90E09787868780EC90E0918B66
:100C8000808B81EC90E0938B828B82EC90E0958B53
:100C9000848B86EC90E0978B868B118E128E138E50
:100CA000148E0895A1E21A2EAA1BBB1BFD010DC0D4
:100CB000AA1FBB1FEE1FFF1FA217B307E407F5070C
:100CC00020F0A21BB30BE40BF50B661F771F881FE8
:100CD000991F1A9469F760957095809590959B017E
:100CE000AC01BD01CF010895052E97FB1EF40094C1
:100CF0000E948B0657FD07D00E94520607FC03D0C6
:100D00004EF40C948B0650954095309521953F4FAD
:100D10004F4F5F4F089590958095709561957F4FE7
:100D20008F4F9F4F0895EE0FFF1F0590F491E02D18
:100D30000994F894FFCFFF000000004701A700D4FA
:0C0D40000094010501E300F7000D0A001B
:107E0000112484B714BE81FFF0D085E080938100F7
:107E100082E08093C00088E18093C10086E0809377
:107E2000C20080E18093C4008EE0C9D0259A86E02C
:107E300020E33CEF91E0309385002093840096BBD3
:107E4000B09BFECF1D9AA8958150A9F7CC24DD24C4
:107E500088248394B5E0AB2EA1E19A2EF3E0BF2EE7
:107E6000A2D0813461F49FD0082FAFD0023811F036
:107E7000013811F484E001C083E08DD089C08234E0
:107E800011F484E103C0853419F485E0A6D080C0E4
:107E9000853579F488D0E82EFF2485D0082F10E0AE
:107EA000102F00270E291F29000F111F8ED06801E7
:107EB0006FC0863521F484E090D080E0DECF843638
:107EC00009F040C070D06FD0082F6DD080E0C81688
:107ED00080E7D80618F4F601B7BEE895C0E0D1E017
:107EE00062D089930C17E1F7F0E0CF16F0E7DF06D8
:107EF00018F0F601B7BEE89568D007B600FCFDCFD4
:107F0000A601A0E0B1E02C9130E011968C91119780
:107F100090E0982F8827822B932B1296FA010C0160
:107F200087BEE89511244E5F5F4FF1E0A038BF0790
:107F300051F7F601A7BEE89507B600FCFDCF97BE46
:107F4000E89526C08437B1F42ED02DD0F82E2BD052
:107F50003CD0F601EF2C8F010F5F1F4F84911BD097
:107F6000EA94F801C1F70894C11CD11CFA94CF0C13
:107F7000D11C0EC0853739F428D08EE10CD085E9AC
:107F80000AD08FE07ACF813511F488E018D01DD067
:107F900080E101D065CF982F8091C00085FFFCCF94
:107FA0009093C60008958091C00087FFFCCF809118
:107FB000C00084FD01C0A8958091C6000895E0E648
:107FC000F0E098E1908380830895EDDF803219F02E
:107FD00088E0F5DFFFCF84E1DECF1F93182FE3DFCA
:107FE0001150E9F7F2DF1F91089580E0E8DFEE27F6
:047FF000FF270994CA
:027FFE00040479
:00000001FF
