:020000040000FA
:100000000C9458000C9480000C9480000C94800098
:100010000C9480000C9480000C9480000C94800060
:100020000C9480000C9480000C9480000C94800050
:100030000C9480000C9480000C9480000C94800040
:100040000C947B030C9480000C9480000C94800032
:100050000C9480000C9480000C9480000C94800020
:100060000C94C5030C9480000000000025002800BB
:100070002B00040404040404040402020202020229
:10008000030303030303010204081020408001025C
:1000900004081020010204081020000000080002DB
:1000A0000100000304070000000000000000E0045D
:1000B00011241FBECFEFD8E0DEBFCDBF11E0A0E01E
:1000C000B1E0EAEFFBE002C005900D92AE33B1075C
:1000D000D9F721E0AEE3B1E001C01D92A43FB20721
:1000E000E1F710E0C8E5D0E004C02197FE010E94CE
:1000F000F505C735D107C9F70E9400050C94FB052B
:100100000C940000AF92BF92CF92DF92EF92FF92D9
:100110000F931F93CF93DF936C017B018B01040F2F
:10012000151FEB015E01AE18BF08C017D10759F0CB
:100130006991D601ED91FC910190F081E02DC6010D
:100140000995892B79F7C501DF91CF911F910F9107
:10015000FF90EF90DF90CF90BF90AF90089590E028
:10016000FC01E656FF4F2491FC01EA57FF4F349102
:10017000FC01EE58FF4FE491EE23C9F0222339F041
:10018000233001F1A8F4213019F1223029F1F0E0F7
:10019000EE0FFF1FE859FF4FA591B4918FB7F89468
:1001A000EC91611126C030953E233C938FBF08959A
:1001B0002730A9F02830C9F0243049F78091800019
:1001C0008F7D03C0809180008F7780938000DFCF88
:1001D00084B58F7784BDDBCF84B58F7DFBCF8091D5
:1001E000B0008F778093B000D2CF8091B0008F7D28
:1001F000F9CF3E2BDACF3FB7F8948091D801909198
:10020000D901A091DA01B091DB0126B5A89B05C008
:100210002F3F19F00196A11DB11D3FBFBA2FA92F85
:10022000982F8827BC01CD01620F711D811D911D82
:1002300042E0660F771F881F991F4A95D1F70895EE
:100240008F929F92AF92BF92CF92DF92EF92FF92E6
:100250004B015C010E94FB006B017C010E94FB00D2
:100260006C197D098E099F09683E734081059105CF
:10027000A8F321E0821A9108A108B10888EEC80EFF
:1002800083E0D81EE11CF11C81149104A104B10487
:1002900029F7FF90EF90DF90CF90BF90AF909F90A5
:1002A0008F90089508951F93CF93DF93C1E0C0937B
:1002B0003F01882399F1D091B8001091BA00809144
:1002C000BC008A7B8093BC0060E082E10E94AF00AA
:1002D00060E083E10E94AF001092A901C093A801E1
:1002E0001092830161E082E10E94AF0061E083E14E
:1002F0000E94AF008091B9008E7F8093B9008091F9
:10030000B9008D7F8093B90088E48093B80085E4BC
:100310008093BC001093BA00D093B800DF91CF91C6
:100320001F91089520916001260F3327331F21323A
:100330003105ECF42091A901FC0190E080E024302B
:1003400069F082E00895A09160012191AC01405CC8
:100350005E4FA40FB52FB11D2C930196861798F30D
:1003600080916001680F6093600180E0089581E0F2
:10037000089508958FEF9FEF08958FEF9FEF0895F1
:1003800080913E0190E09195819591090895CF92D9
:10039000DF92EF92FF920F931F93CF93DF937C0135
:1003A000CB018A012091AF01222389F0EB016B017F
:1003B000C40ED51ECC15DD0569F06991D701ED910C
:1003C000FC910190F081E02DC7010995F3CF642FD6
:1003D0000E949201C801DF91CF911F910F91FF9070
:1003E000EF90DF90CF900895CF93DF931F92CDB71A
:1003F000DEB769832091AF012223F9F02091D20169
:10040000203258F021E030E0FC013383228390E079
:1004100080E00F90DF91CF9108958091B001E82F97
:10042000F0E0EF54FE4F998190838F5F8093B0018D
:100430008093D20181E090E0ECCF61E0CE010196A3
:100440000E949201F7CFCF92DF92EF92FF920F932B
:100450001F93CF93DF93FC01C48121E02093AF0170
:10046000C093D1011092B0011092D2018385682B04
:100470008CED91E00E94F401D091D201D13208F0CC
:1004800092C00E94FB006B017C018091A901811147
:1004900065C082E08093A90181E08093A8018FEF7D
:1004A0008093A7011092A601D093A501A1EBB1E022
:1004B000E5E8F1E080E0D81385C0109284018091D6
:1004C0008401CC0FC82BC0938401809183018130BB
:1004D00009F07CC0109283010E94FB006B017C013B
:1004E000809184018093BB008091AB019091AC011D
:1004F000A091AD01B091AE01892B8A2B8B2B99F085
:100500000E94FB000091AB011091AC012091AD0164
:100510003091AE016C197D098E099F0906171707E6
:1005200028073907E0F18091BC0083FDD9CF85EC25
:100530008093BC000E94FB006B017C018091A901AB
:10054000823009F445C08091A7018F3F61F180910D
:10055000A701803241F18091A70125C08091AB01B4
:100560009091AC01A091AD01B091AE01892B8A2B85
:100570008B2B09F48ACF0E94FB000091AB011091F4
:10058000AC012091AD013091AE016C197D098E094D
:100590009F09061717072807390708F076CF8091BB
:1005A000AA010E9453011092B0011092D201109240
:1005B000AF01DF91CF911F910F91FF90EF90DF90EE
:1005C000CF9008959D9191938F5F75CF85EEB0CFB9
:1005D0008091AB019091AC01A091AD01B091AE01C1
:1005E000892B8A2B8B2B09F4A9CF0E94FB00009149
:1005F000AB011091AC012091AD013091AE016C19AD
:100600007D098E099F09061717072807390708F083
:1006100095CFC5CF90E080E008950F931F93CF93BF
:100620008C01C62F0E9423026C2F6460C8010E94B7
:1006300023026C2F6B7FC8010E94230283EC90E0A1
:100640000197F1F7CF911F910F9108950F931F9389
:10065000CF93DF938C01D62FC42F607F642B0E9431
:100660000D0380E1D89FB00111246C2BC801DF91EC
:10067000CF911F910F910C940D0341E00E9426032E
:1006800081E090E0089585ED8093BC008091AB01FE
:100690009091AC01A091AD01B091AE010796A11D62
:1006A000B11D23E0B695A795979587952A95D1F723
:1006B0002091BC0024FD03C01092A901089540912F
:1006C000AB015091AC016091AD017091AE01452B31
:1006D000462B472B69F30097A105B10541F025E3AF
:1006E0002A95F1F700000197A109B109E1CF8091A6
:1006F000AA010C9453011F920F920FB60F9211246E
:100700002F933F938F939F93AF93BF938091D40187
:100710009091D501A091D601B091D7013091D3012C
:1007200023E0230F2D3758F50196A11DB11D20930D
:10073000D3018093D4019093D501A093D601B093B7
:10074000D7018091D8019091D901A091DA01B0919F
:10075000DB010196A11DB11D8093D8019093D901B1
:10076000A093DA01B093DB01BF91AF919F918F917C
:100770003F912F910F900FBE0F901F90189526E874
:10078000230F0296A11DB11DD2CF1F920F920FB65B
:100790000F9211242F933F934F935F936F937F9307
:1007A0008F939F93AF93BF93EF93FF938091B90083
:1007B000887F803609F44AC0F0F5883209F4A5C074
:1007C00018F5803109F499C0B8F4882309F4F5C00C
:1007D000883009F492C0FF91EF91BF91AF919F9142
:1007E0008F917F916F915F914F913F912F910F90DA
:1007F0000FBE0F901F901895883109F486C0803283
:1008000051F78093A70114C0803409F49BC040F4D1
:100810008033B9F38833F9F68093A70185ECAEC035
:10082000803509F483C0883509F494C0883499F67A
:100830000E944303D0CF883909F48AC038F588373D
:1008400029F050F4883611F0803729F683E0809340
:10085000A9011092820155C0883809F479C0803905
:1008600019F0803809F0B7CF80918201803208F00A
:100870006FC0E091820181E08E0F809382018091B0
:10088000BB00F0E0EE59FE4F80833BC0803B39F067
:10089000D0F4803A09F477C0883A09F09CCF84E01C
:1008A0008093A9011092610110926001F0E0E0E0F4
:1008B00009958091600181110FC081E080936001F2
:1008C0001092400109C0803C09F4A8CF883C09F48B
:1008D000A5CF883B09F07FCFE091610181E08E0FC9
:1008E00080936101F0E0E05CFE4F80818093BB006B
:1008F000909161018091600129C080918401809371
:10090000BB0085EC8093BC0066CF9091A6018091DE
:10091000A501981758F5E091A60181E08E0F80930C
:10092000A601F0E0EB57FE4F8081E9CFE091A601F0
:1009300081E08E0F8093A6018091BB00F0E0EB5721
:10094000FE4F80839091A6018091A5019817C8F26F
:1009500085E8D8CFE091A60181E08E0F8093A601B3
:100960008091BB00F0E0EB57FE4F80838091A8019F
:1009700081115ECF81E08093830184EA8093BC0083
:100980001092A90128CF85EC8093BC001092A90198
:1009900080918201803230F4E0918201F0E0EE59E2
:1009A000FE4F10826091820170E082E691E0F0E0FB
:1009B000E0E00995109282010ECF1092A70138CF86
:1009C000ECEDF1E01382128288EE93E0A0E0B0E05B
:1009D00084839583A683B7838CE091E091838083A1
:1009E000E8EEF1E0138212828EE191E09183808340
:1009F00080E2848380E1818782E082871386089584
:100A0000CF93DF93CDB7DEB728970FB6F894DEBF4C
:100A10000FBECDBF789484B5826084BD84B58160FB
:100A200084BD85B5826085BD85B5816085BD8091B9
:100A30006E00816080936E00109281008091810031
:100A40008260809381008091810081608093810029
:100A5000809180008160809380008091B1008460EB
:100A60008093B1008091B00081608093B00080914C
:100A70007A00846080937A0080917A00826080930B
:100A80007A0080917A00816080937A0080917A0068
:100A9000806880937A001092C1008091ED01886097
:100AA0008093ED0132E0F32EF092F00162E370E00A
:100AB00080E090E00E9420016091F30188EE91E0D7
:100AC0000E94230268EE73E080E090E00E94200123
:100AD00060E388EE91E00E940D030BE416E4C80188
:100AE0000197F1F760E388EE91E00E940D03C801E1
:100AF0000197F1F760E388EE91E00E940D0383E532
:100B000092E00197F1F760E288EE91E00E940D0318
:100B10006091ED01606240E088EE91E00E94260362
:100B200084E08093EE0140E06CE088EE91E00E946A
:100B3000260340E061E088EE91E00E9426030BE38B
:100B40001FE1C8010197F1F7F092EF0140E066E084
:100B500088EE91E00E94260340E062E088EE91E09A
:100B60000E942603C8010197F1F718E01093F301E2
:100B700060E088EE91E00E9423024BE050E066E2E4
:100B800071E088EE91E00E948200E0E0F1E0DE0199
:100B9000119601900D921A95E1F78091F001811163
:100BA00022C08FEF90E0880F991F21E030E02C0FDA
:100BB0003D1F820F931FFC016081606840E088EE5A
:100BC00091E00E9426034BE050E062E371E088EE82
:100BD00091E00E94820000E010E001151105E9F3A8
:100BE0000E940000FACF81E0DDCFEE0FFF1F0590DD
:100BF000F491E02D0994F894FFCF00004000140018
:100C0000540000000000F401C7010A03B901C0014B
:100C1000BD01BA01000000003D0382000A03520139
:100C200048656C6C6F20576F726C640050726F7403
:080C3000657573204932430091
:107E0000112484B714BE81FFF0D085E080938100F7
:107E100082E08093C00088E18093C10086E0809377
:107E2000C20080E18093C4008EE0C9D0259A86E02C
:107E300020E33CEF91E0309385002093840096BBD3
:107E4000B09BFECF1D9AA8958150A9F7CC24DD24C4
:107E500088248394B5E0AB2EA1E19A2EF3E0BF2EE7
:107E6000A2D0813461F49FD0082FAFD0023811F036
:107E7000013811F484E001C083E08DD089C08234E0
:107E800011F484E103C0853419F485E0A6D080C0E4
:107E9000853579F488D0E82EFF2485D0082F10E0AE
:107EA000102F00270E291F29000F111F8ED06801E7
:107EB0006FC0863521F484E090D080E0DECF843638
:107EC00009F040C070D06FD0082F6DD080E0C81688
:107ED00080E7D80618F4F601B7BEE895C0E0D1E017
:107EE00062D089930C17E1F7F0E0CF16F0E7DF06D8
:107EF00018F0F601B7BEE89568D007B600FCFDCFD4
:107F0000A601A0E0B1E02C9130E011968C91119780
:107F100090E0982F8827822B932B1296FA010C0160
:107F200087BEE89511244E5F5F4FF1E0A038BF0790
:107F300051F7F601A7BEE89507B600FCFDCF97BE46
:107F4000E89526C08437B1F42ED02DD0F82E2BD052
:107F50003CD0F601EF2C8F010F5F1F4F84911BD097
:107F6000EA94F801C1F70894C11CD11CFA94CF0C13
:107F7000D11C0EC0853739F428D08EE10CD085E9AC
:107F80000AD08FE07ACF813511F488E018D01DD067
:107F900080E101D065CF982F8091C00085FFFCCF94
:107FA0009093C60008958091C00087FFFCCF809118
:107FB000C00084FD01C0A8958091C6000895E0E648
:107FC000F0E098E1908380830895EDDF803219F02E
:107FD00088E0F5DFFFCF84E1DECF1F93182FE3DFCA
:107FE0001150E9F7F2DF1F91089580E0E8DFEE27F6
:047FF000FF270994CA
:027FFE00040479
:00000001FF
