:020000040000FA
:100000000C945E000C9486000C9486000C94860080
:100010000C9486000C9486000C9486000C94860048
:100020000C9486000C9486000C9486000C94860038
:100030000C9486000C9486000C9486000C94860028
:100040000C942D040C9486000C94FB030C94D503A3
:100050000C9486000C9486000C9486000C94860008
:100060000C9486000C948600000000080002010039
:100070000003040700000000000000000000000072
:10008000250028002B0000000000240027002A0083
:10009000040404040404040402020202020203032E
:1000A0000303030301020408102040800102040836
:1000B000102001020408102077048C0611241FBEB2
:1000C000CFEFD8E0DEBFCDBF22E0A6E4B1E001C0B3
:1000D0001D92AE30B207E1F711E0A0E0B1E0E2EA34
:1000E000F1E102C005900D92A634B107D9F710E0F6
:1000F000CDE5D0E004C02197FE010E94CC06CC35AE
:10010000D107C9F70E9419050C94C4080C9400008B
:1001100090E0FC01EC55FF4F249180579F4FFC016C
:100120008491882399F090E0880F991FFC01EA5789
:10013000FF4FA591B491FC01E458FF4F8591949134
:100140008FB7F894EC91E22BEC938FBF089508954C
:10015000AF92BF92CF92DF92EF92FF920F931F93D5
:10016000CF93DF936C017B018B01040F151FEB0113
:100170005E01AE18BF08C017D10759F06991D601CA
:10018000ED91FC910190F081E02DC6010995892B3C
:1001900079F7C501DF91CF911F910F91FF90EF90FB
:1001A000DF90CF90BF90AF900895FC01538D448DA8
:1001B000252F30E0842F90E0821B930B541710F012
:1001C000CF96089501970895FC01918D828D98171F
:1001D00061F0A28DAE0FBF2FB11D5D968C91928DF7
:1001E0009F5F9F73928F90E008958FEF9FEF089528
:1001F0002FB7F89480914B0190914C01A0914D0143
:10020000B0914E012FBF8093570190935801A09356
:100210005901B0935A018FE491E00E94E40097FFE6
:1002200026C02FB7F89480914B0190914C01A0917A
:100230004D01B0914E012FBF40915701509158018F
:100240006091590170915A01841B950BA60BB70B55
:1002500040915301509154016091550170915601A4
:1002600084179507A607B707B0F28FEF9FEF0895A1
:10027000FC01918D828D981731F0828DE80FF11D70
:10028000858D90E008958FEF9FEF0895FC01918D8B
:10029000228D892F90E0805C9F4F821B91098F7384
:1002A000992708958FE491E00E94460121E0892B6F
:1002B00009F420E0822F089580E090E0892B29F056
:1002C0000E94520181110C9400000895FC01A48D3C
:1002D000A80FB92FB11DA35ABF4F2C91848D90E068
:1002E00001968F739927848FA689B7892C93A0894B
:1002F000B1898C91837080648C93938D848D9813D5
:1003000006C00288F389E02D80818F7D8083089567
:10031000EF92FF920F931F93CF93DF93EC0181E055
:10032000888F9B8D8C8D98131AC0E889F9898081FC
:1003300085FF15C09FB7F894EE89FF896083E8892F
:10034000F98980818370806480839FBF81E090E021
:10035000DF91CF911F910F91FF90EF900895F62EAE
:100360000B8D10E00F5F1F4F0F731127E02E8C8D48
:100370008E110CC00FB607FCFACFE889F98980818D
:1003800085FFF5CFCE010E946601F1CFEB8DEC0F1A
:10039000FD2FF11DE35AFF4FF0829FB7F8940B8FAA
:1003A000EA89FB8980818062CFCFCF93DF93EC0114
:1003B000888D8823B9F0AA89BB89E889F9898C914D
:1003C00085FD03C0808186FD0DC00FB607FCF7CF09
:1003D0008C9185FFF2CF808185FFEDCFCE010E9409
:1003E0006601E9CFDF91CF91089590E0FC01E859D3
:1003F000FF4F2491FC01EC55FF4F3491FC01E05775
:10040000FF4FE491EE23C9F0222339F0233001F1AC
:10041000A8F4213019F1223029F1F0E0EE0FFF1F8E
:10042000E458FF4FA591B4918FB7F894EC91611106
:1004300026C030953E233C938FBF08952730A9F006
:100440002830C9F0243049F7809180008F7D03C0A7
:10045000809180008F7780938000DFCF84B58F7785
:1004600084BDDBCF84B58F7DFBCF8091B0008F77CB
:100470008093B000D2CF8091B0008F7DF9CF3E2B1A
:10048000DACF3FB7F8948091470190914801A0914D
:100490004901B0914A0126B5A89B05C02F3F19F02C
:1004A0000196A11DB11D3FBFBA2FA92F982F8827F4
:1004B000BC01CD01620F711D811D911D42E0660FCF
:1004C000771F881F991F4A95D1F7089590E080E023
:1004D0000895CF93DF93EC0160E08E810E94F501D7
:1004E00061E08E810E94F50160E08E810E94F5013D
:1004F0008BE891E00197F1F7DF91CF910895CF92CA
:10050000DF92EF92FF920F931F93CF93DF936C01D3
:100510007C0187E0E80EF11CD0E0C0E0062F10E07F
:10052000B8010C2E02C0759567950A94E2F76170C8
:10053000F70181917F010E94F5012196C430D10518
:1005400079F7C601DF91CF911F910F91FF90EF9046
:10055000DF90CF900C946902CF92DF92EF92FF92DE
:100560000F931F93CF93DF93EC01F62E642F8C81B2
:100570000E94F5018D818F3F19F060E00E94F50126
:100580000F2D10E08F8584FF25C06E0187E0C80E17
:10059000D11CF12CE12CB8010E2C02C07595679589
:1005A0000A94E2F76170F60181916F010E94F501F2
:1005B000FFEFEF1AFF0A88E0E816F10461F7CE01B9
:1005C000DF91CF911F910F91FF90EF90DF90CF902F
:1005D0000C946902B80184E0759567958A95E1F7F6
:1005E000CE010E947F026F2DCE01DF91CF911F912E
:1005F0000F91FF90EF90DF90CF900C947F0240E03E
:10060000682F82EF91E00C94AC02CF93DF9382309D
:1006100029F4909101029860909301028093050261
:100620001092060280E48093070280E18093080222
:1006300080E5809309028091F6010E9488008091F4
:10064000F7018F3F11F00E9488008091F8010E940D
:100650008800C2EFD1E09E01225F3140809101020B
:1006600084FD0AC084E090E02196281739073CF405
:100670008E810E948800EFCF88E090E0F5CF8BE379
:100680009DE00197F1F760E08091F6010E94F5018D
:1006900060E08091F8010E94F5018091F7018F3FA1
:1006A00019F060E00E94F5018091010284FD39C0DB
:1006B00063E082EF91E00E947F02CBE4D6E4CE01BA
:1006C0000197F1F763E082EF91E00E947F022197AA
:1006D000F1F763E082EF91E00E947F0283E592E010
:1006E0000197F1F762E082EF91E00E947F02809132
:1006F000010280620E94FF0284E0809302028CE08B
:100700000E94FF0281E00E94FF028BE39FE10197BC
:10071000F1F782E08093030286E0DF91CF910C94A1
:10072000FF0280620E94FF028BE496E40197F1F7DA
:100730008091010280620E94FF0283E592E00197AE
:10074000F1F78091010280620E94FF02D0CF41E068
:100750000E94AC0281E090E008950F931F93CF9325
:10076000DF93EC0188819981009759F02A813B81C0
:100770002617370730F081E0DF91CF911F910F915D
:1007800008958B016F5F7F4F0E94F707009759F024
:10079000998388831B830A832C813D81232B59F7FE
:1007A000FC011082E8CF80E0E7CF1F920F920FB6D6
:1007B0000F9211242F933F934F935F936F937F93E7
:1007C0008F939F93AF93BF93EF93FF938FE491E049
:1007D0000E946601FF91EF91BF91AF919F918F9120
:1007E0007F916F915F914F913F912F910F900FBE2D
:1007F0000F901F9018951F920F920FB60F92112411
:100800002F938F939F93EF93FF93E0915F01F0916C
:1008100060018081E0916501F091660182FD1BC05D
:100820009081809168018F5F8F7320916901821799
:1008300041F0E0916801F0E0E15BFE4F958F80931D
:100840006801FF91EF919F918F912F910F900FBEB3
:100850000F901F9018958081F4CF1F920F920FB6C2
:100860000F9211242F933F938F939F93AF93BF9336
:1008700080914B0190914C01A0914D01B0914E019E
:100880003091460123E0230F2D3758F50196A11D25
:10089000B11D2093460180934B0190934C01A0938E
:1008A0004D01B0934E018091470190914801A09174
:1008B0004901B0914A010196A11DB11D80934701E4
:1008C00090934801A0934901B0934A01BF91AF9121
:1008D0009F918F913F912F910F900FBE0F901F907E
:1008E000189526E8230F0296A11DB11DD2CF1092B4
:1008F00052011092510188EE93E0A0E0B0E08093A5
:10090000530190935401A0935501B09356018AE08E
:1009100091E09093500180934F0185EC90E090938B
:100920005C0180935B0184EC90E090935E01809386
:100930005D0180EC90E09093600180935F0181EC19
:1009400090E0909362018093610182EC90E090933B
:1009500064018093630186EC90E09093660180933C
:100960006501109268011092690110926A0110925B
:100970006B011092F5011092F4018CE191E09093DB
:10098000F3018093F2018CE08093F6018FEF809366
:10099000F7018BE08093F8018AE08093F90189E008
:1009A0008093FA0188E08093FB0187E08093FC014B
:1009B0001092FD011092FE011092FF0110920002B0
:1009C0001092010281E00E9405031092ED01109245
:1009D000EC011092EF011092EE011092F1011092D1
:1009E000F00170E060E08CEE91E00E94AD03209198
:1009F000EC013091ED01811113C02115310519F081
:100A0000C9010E946E071092ED011092EC01109244
:100A1000F1011092F0011092EF011092EE01089591
:100A20001092F1011092F00165E471E0C9010C949B
:100A3000BD08CF93DF93CDB7DEB728970FB6F894F4
:100A4000DEBF0FBECDBF789484B5826084BD84B50F
:100A5000816084BD85B5826085BD85B5816085BDB9
:100A600080916E00816080936E0010928100809171
:100A700081008260809381008091810081608093F9
:100A80008100809180008160809380008091B1001E
:100A900084608093B1008091B00081608093B00049
:100AA00080917A00846080937A0080917A008260DD
:100AB00080937A0080917A00816080937A0080919F
:100AC0007A00806880937A001092C100E0915F0103
:100AD000F091600182E08083E0915B01F0915C0124
:100AE0001082E0915D01F0915E018FEC80831092A5
:100AF0006701E0916301F091640186E08083E091F9
:100B00006101F0916201808180618083E0916101E7
:100B1000F0916201808188608083E0916101F091B1
:100B20006201808180688083E0916101F0916201BF
:100B300080818F7D808382E00E9405034EE150E03A
:100B400064E271E08FE491E00E94A80042E050E08E
:100B500063E471E08FE491E00E94A8008FE491E0EB
:100B60000E944601892BD1F31A8219821C821B82B2
:100B70001E821D8270E060E0CE0101960E94AD03EE
:100B800029813A8181112BC02115310519F0C90144
:100B90000E946E071A8219821E821D821C821B828D
:100BA0000E94F80097FD23C08F8318860D811E8157
:100BB0000F5F1F4FB801CE0101960E94AD0388233D
:100BC00079F329813A818D819E81BE01695F7F4FD2
:100BD000820F931F0E94BD081E830D83E1CF1E82EA
:100BE0001D8265E471E0C9010E94BD08D9CF8091E2
:100BF000EC019091ED0169817A81009709F475C04B
:100C00006115710509F46FC04091EE015091EF013B
:100C10002D813E814217530708F465C00E94BD082C
:100C20008D819E819093F1018093F0011E821D823F
:100C300089819A81009711F00E946E070BE31FE1F2
:100C400090E0E92E90E0F92EE1E08091050281111B
:100C5000E0E0E195F0E0EE50FE4F848980680E946C
:100C6000FF024091F0015091F1016091EC0170910F
:100C7000ED0182EF91E00E94A8000E9441022B0149
:100C80003C0188EC882E912CA12CB12C0E944102B1
:100C90006419750986099709683E734081059105B5
:100CA000A8F321E0821A9108A108B10888EE480E45
:100CB00083E0581E611C711C81149104A104B104CD
:100CC00029F781E00E94FF02C8010197F1F7E114C2
:100CD000F10409F4B9CF0E945201882309F4B4CF7A
:100CE0000E940000B1CF0E946E0789819A81909383
:100CF000ED018093EC018B819C819093EF018093B7
:100D0000EE018D819E819093F1018093F0011A8212
:100D100019821C821B828ACF8091EC019091ED0197
:100D2000009711F00C946E0708952F923F924F9206
:100D30005F926F927F928F929F92AF92BF92CF926B
:100D4000DF92EF92FF920F931F93CF93DF93CDB774
:100D5000DEB7CA1BDB0B0FB6F894DEBF0FBECDBFEC
:100D600009942A88398848885F846E847D848C84BD
:100D70009B84AA84B984C884DF80EE80FD800C81C6
:100D80001B81AA81B981CE0FD11D0FB6F894DEBFA9
:100D90000FBECDBFED010895EE0FFF1F0590F4913A
:100DA000E02D09940F931F93CF93DF938230910529
:100DB00010F482E090E0E0910C02F0910D0230E03E
:100DC00020E0B0E0A0E0309799F42115310509F456
:100DD0004AC0281B390B24303105D8F58A819B8104
:100DE0006115710589F1FB0193838283FE0111C0B6
:100DF000408151810281138148175907E0F048175B
:100E0000590799F4109761F012960C931297139664
:100E10001C933296CF01DF91CF911F910F910895CE
:100E200000930C0210930D02F4CF2115310551F0FF
:100E30004217530738F0A901DB019A01BD01DF0118
:100E4000F801C1CFEF01F9CF90930D0280930C020E
:100E5000CDCFFE01E20FF31F819391932250310910
:100E600039832883D7CF20910A0230910B02232B9C
:100E700041F4209102013091030130930B02209341
:100E80000A0220910001309101012115310541F440
:100E90002DB73EB74091040150910501241B350B3D
:100EA000E0910A02F0910B02E217F307A0F42E1B67
:100EB0003F0B2817390778F0AC014E5F5F4F2417BE
:100EC000350748F04E0F5F1F50930B0240930A0204
:100ED000819391939FCFF0E0E0E09CCFCF93DF939D
:100EE0000097E9F0FC01329713821282A0910C0264
:100EF000B0910D02ED0130E020E01097A1F42081C7
:100F00003181820F931F20910A0230910B02281722
:100F1000390709F061C0F0930B02E0930A02DF91F8
:100F2000CF910895EA01CE17DF07E8F54A815B818A
:100F30009E0141155105B1F7E901FB83EA8349910F
:100F40005991C40FD51FEC17FD0761F48081918181
:100F50000296840F951FE90199838883828193818A
:100F60009B838A83F0E0E0E012968D919C91139729
:100F70000097B9F52D913C911197CD010296820F02
:100F8000931F20910A0230910B022817390739F676
:100F9000309751F510920D0210920C02B0930B0293
:100FA000A0930A02BCCFD383C28340815181840FB6
:100FB000951FC817D90761F44E5F5F4F88819981EB
:100FC000480F591F518340838A819B819383828379
:100FD0002115310509F0B0CFF0930D02E0930C021A
:100FE0009ECFFD01DC01C0CF13821282D7CFB0E0CB
:100FF000A0E0EDEFF7E00C9497068C01009751F418
:10100000CB010E94D2068C01C801CDB7DEB7E0E16A
:101010000C94B306FC01E60FF71F9C012250310926
:10102000E217F30708F49DC0D901CD91DC91119727
:10103000C617D70798F0C530D10530F3CE01049715
:101040008617970708F3C61BD70B2297C193D19336
:101050006D937C93CF010E946E07D6CF5B01AC1AD3
:10106000BD0A4C018C0E9D1EA0910C02B0910D0288
:10107000512C412CF12CE12C109731F580910A0272
:1010800090910B028815990509F05CC04616570629
:1010900008F058C08091000190910101009741F43F
:1010A0008DB79EB74091040150910501841B950BAB
:1010B000E817F90708F055C0F0930B02E0930A0215
:1010C000F90171836083A0CF8D919C911197129645
:1010D0006C90129713967C901397A815B90559F543
:1010E0006C0142E0C40ED11CCA14DB0420F1AC0137
:1010F0004A195B09DA011296159780F062827382B1
:1011000051834083D9016D937C93E114F10471F014
:10111000D7011396FC93EE93129776CF22968C0FFD
:101120009D1FF90191838083F301EFCFF0930D02AE
:10113000E0930C0269CF4816590608F42C017D0192
:10114000D3019ACFCB010E94D2067C01009749F0CF
:10115000AE01B8010E94B408C8010E946E07870161
:1011600053CF10E000E050CFFB01DC0102C0019042
:101170000D9241505040D8F70895FB01DC010190D9
:101180000D920020E1F7089510E0CDE5D0E004C015
:10119000FE010E94CC062196CE35D107C9F7F894FE
:1011A000FFCF00000E028000000000008801A800B0
:1011B000D500D5014601E400380100000000A70376
:1011C000A8006602A700456E7465722074686520E9
:1011D0007465787420746F207072696E74206F6EFD
:0811E000206C6364000D0A009D
:107E0000112484B714BE81FFF0D085E080938100F7
:107E100082E08093C00088E18093C10086E0809377
:107E2000C20080E18093C4008EE0C9D0259A86E02C
:107E300020E33CEF91E0309385002093840096BBD3
:107E4000B09BFECF1D9AA8958150A9F7CC24DD24C4
:107E500088248394B5E0AB2EA1E19A2EF3E0BF2EE7
:107E6000A2D0813461F49FD0082FAFD0023811F036
:107E7000013811F484E001C083E08DD089C08234E0
:107E800011F484E103C0853419F485E0A6D080C0E4
:107E9000853579F488D0E82EFF2485D0082F10E0AE
:107EA000102F00270E291F29000F111F8ED06801E7
:107EB0006FC0863521F484E090D080E0DECF843638
:107EC00009F040C070D06FD0082F6DD080E0C81688
:107ED00080E7D80618F4F601B7BEE895C0E0D1E017
:107EE00062D089930C17E1F7F0E0CF16F0E7DF06D8
:107EF00018F0F601B7BEE89568D007B600FCFDCFD4
:107F0000A601A0E0B1E02C9130E011968C91119780
:107F100090E0982F8827822B932B1296FA010C0160
:107F200087BEE89511244E5F5F4FF1E0A038BF0790
:107F300051F7F601A7BEE89507B600FCFDCF97BE46
:107F4000E89526C08437B1F42ED02DD0F82E2BD052
:107F50003CD0F601EF2C8F010F5F1F4F84911BD097
:107F6000EA94F801C1F70894C11CD11CFA94CF0C13
:107F7000D11C0EC0853739F428D08EE10CD085E9AC
:107F80000AD08FE07ACF813511F488E018D01DD067
:107F900080E101D065CF982F8091C00085FFFCCF94
:107FA0009093C60008958091C00087FFFCCF809118
:107FB000C00084FD01C0A8958091C6000895E0E648
:107FC000F0E098E1908380830895EDDF803219F02E
:107FD00088E0F5DFFFCF84E1DECF1F93182FE3DFCA
:107FE0001150E9F7F2DF1F91089580E0E8DFEE27F6
:047FF000FF270994CA
:027FFE00040479
:00000001FF
